:020000040800F2
:1000000000000220B9020008313D0008C5020008C6
:10001000393D00083D3D0008413D0008000000005A
:10002000000000000000000000000000CD030008F8
:10003000453D000800000000D5030008493D0008C8
:10004000E9030008E9030008E9030008E9030008E0
:10005000E9030008E9030008E9030008E9030008D0
:10006000E9030008E9030008E9030008E9030008C0
:10007000E9030008E9030008E9030008E9030008B0
:10008000E9030008E9030008553D0008E9030008FA
:10009000E9030008E9030008E9030008E903000890
:1000A000E9030008693D0008E9030008E9030008C6
:1000B000E9030008E9030008E9030008E903000870
:1000C000E9030008E9030008E9030008E903000860
:1000D000E903000869420008E9030008E903000891
:1000E000E9030008E9030008E9030008E903000840
:1000F000E9030008E9030008E9030008E903000830
:10010000E9030008E9030008E9030008E90300081F
:10011000E9030008E9030008E9030008E90300080F
:1001200079420008E903000889420008E903000851
:10013000E9030008E9030008E9030008E9030008EF
:10014000E9030008E9030008E9030008E9030008DF
:10015000E9030008E903000899420008E9030008E0
:10016000E9030008E9030008E9030008E9030008BF
:10017000E9030008E9030008E903000800000000A3
:10018000E9030008E903000800B583B003F0FAF8BA
:10019000384B394A1360394A136039490CE00A6810
:1001A0004B6801F10C04886803E01168196004339E
:1001B00004329842F9D82146324B9942EFD32E4B64
:1001C0001A68314B9A4204D12C4B1A682F4B9A4231
:1001D00000D0FEE7274B2E4A13602E4A13602E4BA9
:1001E0000AE0194651F8082B5B6802E00020106015
:1001F00004329A42FAD30B46284A9342F1D3244B55
:100200001B6813B9234B1B6803B1FEE703F0CAF95F
:10021000694601A803F060F8214C224B1C1BA41076
:10022000002504E01E4B53F8253098470135AC42B9
:10023000F8DC1D4C1D4B1C1BA410002504E01A4BC0
:1002400053F8253098470135AC42F8DC0099019805
:1002500003F00CFC0546164C164B1C1BA41004E0C6
:10026000013C134B53F824309847002CF8DC284607
:1002700003F00EF8BABADECA0000002074000020B5
:10028000EC030008040400087856341232547698BF
:10029000780000202408002004040008140400084A
:1002A00014040008140400081404000814040008CE
:1002B000140400081404000808B5FFF765FF00BF28
:1002C00000BEFEE71EF0040F0CBFEFF30880EFF353
:1002D00009807146414A10472DE9F04182B0044639
:1002E0008846134B5E6B9F6B9D6A1B6B13F0020F6E
:1002F0000DD00F4BDB6A002B09DA4BF6AB6103F034
:10030000CBF820B14FF00042094BDA620CE009480B
:1003100002F0EAFFCDF800803B46324629462046EF
:1003200003F042F800BEFEE702B0BDE8F08100BF76
:1003300000ED00E06463000800BEFEE71EF0040F5D
:100340000CBFEFF30880EFF309807146244A104791
:100350002DE9F04182B004468846084B5E6B9F6BE6
:100360009D6A074802F0C0FFCDF800803B46324648
:100370002946204603F018F800BEFEE700ED00E035
:10038000746300081EF0040F0CBFEFF30880EFF356
:1003900009807146134A10472DE9F04182B00446A6
:1003A0008846084B5E6B9F6B9D6A074802F09CFF76
:1003B000CDF800803B4632462946204602F0F4FF45
:1003C00000BEFEE700ED00E08063000800BEFEE72F
:1003D00000BEFEE700BEFEE770470000D90200083D
:0C03E000510300089903000800BEFEE76E
:1003EC00A86700080000002078000020A86700081B
:1003FC0000000010000000107800002028080020E9
:08040C000000001000000010C8
:1004200010B5044601F02AFC064BA3FB00308009FE
:1004300000F0E4FB002221464FF0FF3000F086FB85
:10044000002010BDD34D621008B50B4B1A6842F462
:1004500000721A601A6842F480621A601A6842F4E4
:1004600080721A60032000F053FB0020FFF7D8FFD2
:1004700003F01AFB002008BD003C0240024A13684A
:1004800001331360704700BF14010020014B18684E
:10049000704700BF1401002010B50446504B5A6845
:1004A00022F440325A60596842680A435A6002682E
:1004B000536823F48073536002685368016943EA08
:1004C000012353600268536823F04073536002684D
:1004D000516883680B4353600268936823F4006398
:1004E000936002689168C3680B439360826A3D4BD6
:1004F0009A4214D00268936823F070639360026894
:100500009168836A0B4393600268936823F04053B9
:10051000936002689168C36A0B43936009E00268C4
:10052000936823F0706393600268936823F04053EC
:1005300093602268936823F00203936022689368B3
:10054000A16943EA41039360236A03B3636A013BF1
:10055000072B04D940F20461234803F0A3FA226870
:10056000536843F4006353602268536823F4604384
:100570005360636A013B4FF4604292FAA2F2B2FA0E
:1005800082F2934021684A6813434B6004E022687A
:10059000536823F4006353602268D36A23F4700322
:1005A000D3622168CA6AE369013B42EA0353CB6222
:1005B0002268936823F40073936022689368216B28
:1005C00043EA412393602268936823F48063936035
:1005D00022689368616943EA8123936010BD00BF7C
:1005E000002301400100000F78600008002800F09F
:1005F000DE8010B5044603686E4A93420CD002F5C3
:100600008072934208D002F58072934204D040F287
:100610000D11694803F046FA63686BB1B3F5803F8A
:100620000AD0B3F5003F07D0B3F5403F04D04FF4F4
:100630008771614803F036FAA3686BB1B3F1807F2C
:100640000AD0B3F1007F07D0B3F1407F04D040F26D
:100650000F11594803F026FA2369012B04D94FF4EE
:100660008871554803F01EFAA369012B04D940F2A2
:100670001111514803F016FAA36AA3B3B3F1807FB6
:1006800031D0B3F1007F2ED0B3F1407F2BD0B3F146
:10069000806F28D0B3F1A06F25D0B3F1C06F22D006
:1006A000B3F1E06F1FD0B3F1006F1CD0B3F1106F46
:1006B00019D0B3F1206F16D0B3F1306F13D0B3F16E
:1006C000406F10D0B3F1506F0DD0B3F1606F0AD00E
:1006D000B3F1706F07D0394A934204D04FF4897157
:1006E000354803F0DFF9E3683BB1B3F5006F04D0A0
:1006F00040F21311304803F0D5F9E369013B0F2BA9
:1007000004D94FF48A712C4803F0CCF9236B012BE8
:1007100004D940F21511284803F0C4F96369022B8B
:1007200004D94FF48B71244803F0BCF9236A012BE0
:1007300004D940F21711204803F0B4F9A26A1F4B04
:100740009A420FD0E36A6BB1B3F1805F0AD0B3F184
:10075000005F07D0B3F1405F04D040F21B11164890
:1007600003F0A0F9236C2BB9636484F83C30204675
:1007700003F0BEF9236C13F0100F13D1236C23F494
:10078000885323F0020343F0020323642046FFF75B
:1007900083FE00206064236C23F0030343F0010315
:1007A000236400E00120002384F83C3010BD0120C8
:1007B000704700BF00200140786000080100000F72
:1007C000704700BF704700BF704700BF38B5044690
:1007D0008369012B04D940F269315B4803F062F967
:1007E000E369013B0F2B04D940F26A31564803F00C
:1007F00059F96369022B04D940F26B31524803F076
:1008000051F922681168536803F0200311F0020FB8
:100810002DD063B3236C13F0100F03D1236C43F47A
:1008200000732364936813F0405F19D1A369BBB9C7
:10083000D36A13F4700F03D0936813F4806F0FD151
:10084000536823F020035360236C23F480732364E4
:10085000236C13F4805F03D1236C43F00103236402
:100860002046FFF7ADFF23686FF012021A6023687D
:1008700019685A6802F0800211F0040F36D0002A7D
:1008800034D0226C12F0100F03D1226C42F40052CB
:1008900022649A6812F4401F21D19A6B12F4401F0F
:1008A00003D09A6812F4806F19D15A6812F4806FDD
:1008B00015D19A6812F0405F11D1A2697AB95A68CD
:1008C00022F080025A60236C23F480532364236C4B
:1008D00013F4807F03D1236C43F00103236420468B
:1008E00000F014F923686FF00C021A602268116896
:1008F000536803F0400311F0010F0FD073B1136878
:1009000013F0010F0AD0236C43F480332364204694
:10091000FFF758FF23686FF001021A602268116820
:10092000536803F0806311F0200F0CD05BB1636C4F
:1009300043F0020363646FF0200515602046FFF763
:1009400043FF23681D6038BD7860000830B583B070
:1009500005460C46002301930B68122B04D940F284
:10096000FE41664803F09EF86368013B0F2B04D9F3
:1009700040F2FF41614803F095F8A368072B04D9C2
:100980004FF4A0615D4803F08DF895F83C30012BE1
:1009900000F0B180012385F83C302368092B17D97A
:1009A0002868C2689BB203EB43031E3B072101FA90
:1009B00003F322EA0303C3602968C868A268238896
:1009C00003EB43031E3B02FA03F30343CB6013E044
:1009D000286802699BB203EB4303072101FA03F382
:1009E00022EA0303036129680869A368228802EBED
:1009F0004202934003430B616368062B16D82868B4
:100A0000426B03EB8303053B1F2101FA03F322EA48
:100A1000030343632968486B2288636803EB8303FD
:100A2000053B02FA03F303434B632EE00C2B16D86D
:100A30002868026B03EB8303233B1F2101FA03F3B6
:100A400022EA030303632968086B2288636803EBC7
:100A50008303233B02FA03F303430B6315E0286887
:100A6000C26A03EB8303413B1F2101FA03F322EA2D
:100A70000303C3622968C86A2288636803EB83039F
:100A8000413B02FA03F30343CB622A681C4B9A42B0
:100A900007D12368122B04D11A4A536843F4800308
:100AA00053602A68164B9A4221D12368103B012BD0
:100AB0001DD8144A536843F4000353602368102B75
:100AC00015D1114B1B6802F1467202F52E3202F26B
:100AD0008332A2FB03239B0C03EB83035A00019296
:100AE00002E0019B013B0193019B002BF9D1002007
:100AF00085F83C0000E0022003B030BD78600008BB
:100B000000200140002301400C000020704700BF7E
:100B100010B50446C31E042B03D9A421094802F0D2
:100B2000C1FF094AD36823F4E0631B041B0C2402B1
:100B300004F4E064234343F0BF6343F40033D36021
:100B400010BD00BFA860000800ED00E070B50446CD
:100B50000E4615460F2A03D9BC211A4802F0A2FFFF
:100B60000F2E03D9BD21174802F09CFF164BDA68FF
:100B7000C2F30222C2F10701042928BF0421131D78
:100B8000062B01D9033A00E00022012303FA01F108
:100B900001393140914003FA02F2013A2A400A43F6
:100BA000002C06DA04F00F041201D2B2074B1A55DA
:100BB00070BD1201D2B204F1604404F5614484F8BE
:100BC000002370BDA860000800ED00E014ED00E017
:100BD00010B5041E03DAD021064802F063FF620953
:100BE00004F01F04012303FA04F4034B43F82240EA
:100BF00010BD00BFA860000800E100E00138B0F1BE
:100C0000807F0AD2064B5860F021064A82F82310F2
:100C10000020986007221A6070470120704700BFCB
:100C200010E000E000ED00E010B50446042805D017
:100C300020B140F2B311084802F034FF042C05D172
:100C4000064A136843F00403136010BD034A136897
:100C500023F00403136010BDA860000810E000E05A
:100C6000704700BF08B5FFF7FBFF08BDC8B110B55E
:100C7000044602680C4B9A4203D0F0210B4802F064
:100C800011FF237913F0FF0F04D100236371204675
:100C900002F082FF022323710020206101232371CF
:100CA00010BD0120704700BF00740040DC600008E8
:100CB000F8B504460E4615460B68A3B1242B12D096
:100CC0000C2B10D0142B0ED01C2B0CD0042B0AD0C4
:100CD0002C2B08D0342B06D03C2B04D040F20A3108
:100CE0001A4802F0DFFE736833B1022B04D040F2E1
:100CF0000B31164802F0D6FE35B1102D04D04FF45A
:100D00004371124802F0CEFE6379012B1CD0012002
:100D100060710223237127683A6840F6FE73AB4086
:100D200022EA0301336872681343AB400B433B6014
:100D300021680B68C02202FA05F523EA05050D605B
:100D4000207100206071F8BD0220F8BDDC60000851
:100D500030B405682C6824F480242C600468636037
:100D60008368402B04D103689A600368D96003E06C
:100D7000036899600368DA6030BC70470268D3B2D8
:100D8000103B0B49A1FB03131B090A49C95C4165D0
:100D9000032B06D922F47F7222F00302043202658B
:100DA00004E022F47F7222F003020265006D7047B6
:100DB000ABAAAAAA3C610008002800F0048110B583
:100DC00004460368814A934231D0183293422ED0B0
:100DD000183293422BD01832934228D018329342C3
:100DE00025D01832934222D0183293421FD01832A5
:100DF00093421CD002F55672934218D01832934297
:100E000015D01832934212D0183293420FD01832B4
:100E100093420CD01832934209D01832934206D034
:100E20001832934203D0C521694802F03BFE636843
:100E3000C3B1B3F1007F15D0B3F1806F12D0B3F11D
:100E4000C06F0FD0B3F1006F0CD0B3F1206F09D099
:100E5000B3F1406F06D0B3F1606F03D0C6215C4898
:100E600002F020FEA3683BB1402B05D0802B03D0BD
:100E7000C721574802F016FEE368B3F5007F04D09F
:100E80001BB1C821524802F00DFE2369B3F5806FF3
:100E900004D01BB1C9214E4802F004FE63694BB176
:100EA000B3F5006F06D0B3F5805F03D0CA21484880
:100EB00002F0F8FDA3694BB1B3F5005F06D0B3F5BE
:100EC000804F03D0CB21424802F0ECFDE36943B1EF
:100ED000B3F5807F05D0202B03D0CC213C4802F015
:100EE000E1FD236A63B1B3F5803F09D0B3F5003F5C
:100EF00006D0B3F5403F03D0CD21354802F0D2FDF6
:100F0000636A2BB1042B03D0CE21314802F0CAFD15
:100F1000636A23B3A36A032B03D9D3212C4802F0BD
:100F2000C1FDE36A63B1B3F5000F09D0B3F1807F6F
:100F300006D0B3F1C07F03D0D421254802F0B2FD22
:100F4000236B63B1B3F5001F09D0B3F5800F06D052
:100F5000B3F5C00F03D0D5211D4802F0A3FD022335
:100F600084F83530206803681A4919406268A3681C
:100F70001A43E3681A4323691A4363691A43A3694E
:100F80001A43E3691343226A1A4341EA0203626A7D
:100F9000042A03D1E16A226B0A43134303602268E7
:100FA000536923F00703616A0B43042901D1A16A45
:100FB0000B4353612046FFF7E1FE0020E06401236C
:100FC00084F8353010BD0120704700BF106002402A
:100FD0000C6100083F8010F0F8B590F83440012C07
:100FE0002FD01D4616460F460446012380F83430A4
:100FF000022380F835306A1E4FF6FE739A4204D9F8
:1010000040F29911104802F04DFD2068036823F06A
:10101000010303602B46324639462046FFF798FE0F
:101020002268136843F01E0313602268536943F07B
:10103000800353612268136843F0010313600020AA
:10104000F8BD0220F8BD00BF0C61000838B50446A9
:10105000056D2A68416D08238B401A4219D0036838
:101060001A6812F0040F14D01A6822F004021A60F1
:10107000426D08239340AB60C36C43F00103C3642B
:10108000042380F83530002380F83430836C03B1BA
:1010900098472A68616D584B8B401A421AD02368D2
:1010A0005A6912F0800F15D05A6922F080025A61F5
:1010B000626D514B9340AB60E36C43F00203E36419
:1010C000042384F83530002384F83430A36C0BB14A
:1010D000204698472A68616D484B8B401A421AD0C7
:1010E00023681A6812F0020F15D01A6822F0020263
:1010F0001A60626D414B9340AB60E36C43F00403B4
:10110000E364042384F83530002384F83430A36C7E
:101110000BB1204698472A68616D10238B401A4214
:101120002DD02268116811F0080F28D0116811F431
:10113000802F11D0AB6023681A6812F4002F03D1FE
:10114000312384F8353016E01B6813F4002F12D0D9
:10115000412384F835300EE0136813F4807F03D107
:10116000136823F008031360626D10239340AB6093
:10117000312384F83530236C0BB1204698472A6818
:10118000616D20238B401A4234D02268116811F01F
:10119000100F2FD0116811F4802F13D0AB6023688B
:1011A0001A6812F4002F04D1636C1BB320469847D1
:1011B00038BD1B6813F4002F1CD0E36BD3B120465D
:1011C000984738BD136813F4807F03D1136823F068
:1011D00010031360626D20239340AB60E36CE36403
:1011E000112384F83530002384F83430E36B0BB1DD
:1011F0002046984738BD00BF0100800004008000F1
:101200002DE9F04782B080460F46A44B984223D088
:1012100003F5806398421FD003F5806398421BD08A
:1012200003F58063984217D003F58063984213D08A
:1012300003F5806398420FD003F5806398420BD08A
:1012400003F58063984207D003F58063984203D08A
:10125000C521934802F026FC3B881BB9C621904863
:1012600002F020FC7B68012B22D9112B20D0022B0D
:101270001ED0122B1CD08B4A934219D002F580123B
:10128000934215D002F58012934211D0A2F5F812C4
:1012900093420DD002F58012934209D002F58012DC
:1012A000934205D0032B03D0C7217D4802F0FAFBFF
:1012B000BB68022B03D9C821794802F0F3FB002553
:1012C0002CE10124AC403E682640B44240F0258128
:1012D0007B68022B01D0122B4AD13B69C3B3092B87
:1012E00036D0ABB3A3B39BB393B3012B30D02FD085
:1012F000022B2DD02CD02BD0032B29D0042B27D080
:1013000026D025D0052B23D022D0092B20D0062B88
:101310001ED0092B1CD0072B1AD019D018D0082B9F
:1013200016D015D014D0092B12D011D00A2B0FD003
:101330000ED00B2B0CD00C2B0AD009D00D2B07D0C4
:101340000C2B05D00F2B03D0D921554802F0AAFB56
:10135000EA08083258F8220005F0070399000F2325
:101360008B4020EA03003B698B40034348F822305E
:10137000D8F800304FEA450A4FF0030909FA0AF994
:101380006FEA090903EA09027B6803F0030303FA21
:101390000AF31343C8F800307B685A1E012A03D9A8
:1013A000112B01D0122B1BD1FB68032B03D9EC218D
:1013B0003B4802F077FBD8F8083009EA0302FB68E3
:1013C00003FA0AF31343C8F80830D8F8043023EAC4
:1013D00004047B68C3F30013AB401C43C8F804400B
:1013E000D8F80C3009EA0309BB6803FA0AF349EAA2
:1013F0000303C8F80C307B6813F0805F00F08D8029
:1014000000230193284B5A6C42F480425A645B6C6F
:1014100003F480430193019BA9088A1C234B53F8D2
:10142000220005F003039B000F229A4020EA0200ED
:101430001A4A904521D002F5806290451FD002F5EE
:10144000806290451DD002F5806290451BD002F568
:101450008062904519D002F58062904517D002F560
:101460008062904515D002F58062904513D002F558
:10147000806290451CD108221BE0002219E0012265
:1014800017E0022215E0032213E0042211E00522F6
:101490000FE006220DE007220BE000BF0000024033
:1014A000446100080000111000380240003801407B
:1014B000092202FA03F3034302311B4A42F82130A6
:1014C0001A4B1A68F34302EA0301786810F4803F6C
:1014D00001D046EA0201154A1160526803EA02018E
:1014E000786810F4003F01D046EA02010F4A5160CB
:1014F000926803EA0201786810F4801F01D046EA7E
:1015000002010A4A9160D2681340796811F4001F01
:1015100001D046EA0203054AD36001350F2D7FF65C
:10152000D0AE02B0BDE8F08700380140003C014079
:1015300070B5064615460C4621B940F2B11108486F
:1015400002F0B0FA012D04D94FF4D971044802F029
:10155000A9FA0DB1B46170BD2404B46170BD00BFBF
:101560004461000830B583B0044603680F2B03D9EB
:10157000F6219C4802F096FA236813F0010F45D03B
:101580006368012B05D9052B03D0FB21954802F098
:1015900089FA954B9B6803F00C03042B0AD0924BFD
:1015A0009B6803F00C03082B0CD18F4B5B6813F482
:1015B000800F07D08C4B1B6813F4003F26D0636864
:1015C00023BBCCE12279894B1A7063687BB1FEF7AB
:1015D0005DFF054605E0FEF759FF401B642800F259
:1015E000C081814B1B6813F4003FF4D00EE0FEF77E
:1015F0004DFF054605E0FEF749FF401B642800F259
:10160000B281794B1B6813F4003FF4D1236813F0C7
:10161000020F6AD0E368012B04D940F22D11714802
:1016200002F040FA23691F2B04D94FF497716D48DB
:1016300002F038FA6C4B9B6813F00C0F0AD06A4B1F
:101640009B6803F00C03082B1BD1674B5B6813F4FA
:10165000800F16D1644B1B6813F0020F03D0E368B0
:10166000012B40F082816048036823F0F801236970
:10167000F82292FAA2F2B2FA82F293400B4303608C
:1016800033E0E368FBB10122594B1A60FEF7FEFE1E
:10169000054605E0FEF7FAFE401B022800F26781CE
:1016A000514B1B6813F0020FF4D04F48036823F02E
:1016B000F8012369F82292FAA2F2B2FA82F2934078
:1016C0000B43036011E00022494B1A60FEF7DEFE77
:1016D000054605E0FEF7DAFE401B022800F24981CC
:1016E000414B1B6813F0020FF4D1236813F0080F6D
:1016F0002ED06369012B04D94FF4B771394802F039
:10170000D1F9636993B101223A4B1A60FEF7BEFE2C
:10171000054605E0FEF7BAFE401B022800F22B81C9
:10172000314B5B6F13F0020FF4D011E00022314B0C
:101730001A60FEF7ABFE054605E0FEF7A7FE401B6C
:10174000022800F21A81284B5B6F13F0020FF4D1CC
:10175000236813F0040F60D0A368012B06D9052B72
:1017600004D04FF4CC711F4802F09CF90023019380
:101770001D4B1A6C42F080521A641B6C03F08053AC
:101780000193019B1C4A136843F480731360FEF7B6
:101790007DFE054605E0FEF779FE401B022800F2BB
:1017A000EE80154B1B6813F4807FF4D0227A134B24
:1017B0001A70A3688BB1FEF769FE054607E0FEF7D5
:1017C00065FE401B41F28833984200F2DA80064BF6
:1017D0001B6F13F0020FF2D01FE0FEF757FE054615
:1017E00016E000BF84610008003802400238024061
:1017F00000004742800E47420070004070380240AF
:10180000FEF744FE401B41F28833984200F2BB8051
:10181000634B1B6F13F0020FF2D1A369022B04D9A3
:1018200040F2CD115F4802F03DF9A369002B00F0B2
:10183000AC805B4A926802F00C02082A00F0A78094
:10184000022B79D1E3693BB1B3F5800F04D04FF49B
:10185000EB71544802F026F9236A3F2B04D940F279
:10186000D711504802F01EF9636A323BB3F5BF7FCF
:1018700004D94FF4EC714B4802F014F9A36A022B1F
:101880000AD0042B08D0062B06D0082B04D040F237
:10189000D911444802F006F9E36A043B0B2B04D942
:1018A0004FF4ED713F4802F0FDF800223E4B1A6004
:1018B000FEF7ECFD054604E0FEF7E8FD401B0228BC
:1018C00067D8374B1B6813F0007FF5D1E169236AB5
:1018D0001943636A47F6C07292FAA2F2B2FA82F230
:1018E00093401943A36A5B085A1E4FF4403393FA9E
:1018F000A3F3B3FA83F302FA03F30B43E26A4FF064
:10190000706191FAA1F1B1FA81F18A401343244A3E
:1019100053600122244B1A60FEF7B8FD044604E030
:10192000FEF7B4FD001B022835D81D4B1B6813F0D1
:10193000007FF5D0002031E000221B4B1A60FEF73B
:10194000A5FD044604E0FEF7A1FD001B022824D8F3
:10195000134B1B6813F0007FF5D100201EE001201F
:101960001CE003201AE0032018E0012016E0032009
:1019700014E0032012E0032010E003200EE0032017
:101980000CE003200AE0032008E0002006E001202C
:1019900004E0032002E0032000E0032003B030BD98
:1019A00000380240846100086000474270B5044678
:1019B0000D460368013B0E2B04D94FF40E7183488A
:1019C00002F070F8072D04D940F239217F4802F067
:1019D00069F87F4B1B6803F00F039D4208D9EBB2F7
:1019E0007B4A1370136803F00F039D4240F0DB80C5
:1019F000236813F0020F1DD0A368A3B1802B12D06F
:101A0000902B10D0A02B0ED0B02B0CD0C02B0AD016
:101A1000D02B08D0E02B06D0F02B04D04FF414715B
:101A20006A4802F03FF86B498B6823F0F002A36824
:101A300013438B60236813F0010F64D06368032B9A
:101A400004D940F25721614802F02CF86268012A5B
:101A500005D1604B1B6813F4003F0FD1A5E0931E26
:101A6000012B05D85B4B1B6813F0007F06D19EE06D
:101A7000584B1B6813F0020F00F09B8055498B6890
:101A800023F0030313438B60FEF700FD06466368F3
:101A9000012B0FD107E0FEF7F9FC801B41F28833E0
:101AA000984200F288804B4B9B6803F00C03042B98
:101AB000F1D128E0022B0ED106E0FEF7E7FC801BF7
:101AC00041F28833984278D8424B9B6803F00C036C
:101AD000082BF2D117E0032B10D13E4B9B68FEF789
:101AE000D5FC801B41F288339842F6D967E0FEF7B7
:101AF000CDFC801B41F28833984262D8354B9B68FD
:101B000013F00C0FF3D1324B1B6803F00F039D420F
:101B100007D2EAB22E4B1A701B6803F00F039D42E6
:101B200051D1236813F0040F19D0E36883B1B3F5E2
:101B3000805F0DD0B3F5A05F0AD0B3F5C05F07D0CA
:101B4000B3F5E05F04D040F2B521204801F0AAFFD0
:101B500020498B6823F4E052E36813438B602368C9
:101B600013F0080F1AD0236983B1B3F5805F0DD04D
:101B7000B3F5A05F0AD0B3F5C05F07D0B3F5E05F5F
:101B800004D04FF42F71114801F08CFF114A936873
:101B900023F46043216943EAC10393600020FEF708
:101BA0003FFC002070BD012070BD012070BD0120F0
:101BB00070BD012070BD032070BD032070BD0320E7
:101BC00070BD032070BD012070BD00BF846100089E
:101BD000003C024000380240254B9B6803F00C0398
:101BE000042B3FD0082B01D02248704710B4204B63
:101BF000586800F03F005B6813F4800F10D01E4B54
:101C0000B3FBF0F01A4B5A6847F6C0710A4091FADC
:101C1000A1F3B3FA83F322FA03F303FB00F310E01A
:101C2000144BB3FBF0F0124B5A6847F6C07402EA4B
:101C3000040194FAA4F2B2FA82F221FA02F202FB4F
:101C400000F30B4A506800F440324FF4403090FAF1
:101C5000A0F0B0FA80F022FA00F001304000B3FBAF
:101C6000F0F001E0044870475DF8044B704700BF96
:101C7000003802400024F40000127A0008B5FFF793
:101C8000ABFF084B9B6803F0F002F02393FAA3F339
:101C9000B3FA83F322FA03F3034AD35CD840034B2D
:101CA000186008BD00380240746100080C00002074
:101CB00008B5FFF7E3FF084B9B6803F4E0524FF4CD
:101CC000E05393FAA3F3B3FA83F322FA03F3034A3C
:101CD000D35CD84008BD00BF0038024074610008E2
:101CE00008B5FFF7CBFF084B9B6803F460424FF445
:101CF000604393FAA3F3B3FA83F322FA03F3034A9C
:101D0000D35CD84008BD00BF0038024074610008B1
:101D1000704700BF08B5054BDB6813F0800F04D097
:101D2000FFF7F6FF8022024B1A7008BD0038024010
:101D30000E38024070B4036A23F001030362036AA1
:101D40004268846924F073040D6844EA050623F0B0
:101D500002048B6823430F4DA84204D00E4CA042CE
:101D600003D1012402E0012400E000245CB123F04F
:101D70000803CD682B4323F0040322F440724D691D
:101D800015438A692A43426086614A684263036256
:101D900070BC704700000140000401402DE9F04193
:101DA00004460E46036A23F480730362056A47689B
:101DB000C36923F073080B6848EA030825F400732D
:101DC0008D6843EA0525204B984205D003F58063D2
:101DD000984203D1012302E0012300E000235BB31A
:101DE000F36833B1082B04D041F20D31174801F0EC
:101DF00059FEB369B3F5007F05D023B141F20E312E
:101E0000124801F04FFE7369B3F5807F05D023B10E
:101E100041F20F310D4801F045FE25F40065F368ED
:101E200045EA032525F4806527F44057736947EA9E
:101E30000317B36947EA03176760C4F81C80736827
:101E4000E3632562BDE8F08100000140B461000851
:101E50002DE9F04104460F46036A23F480530362E0
:101E6000056AD0F80480C66926F4E6430E6843EAA2
:101E7000062625F400538D6843EA0535114B984238
:101E800005D003F58063984203D1012302E00123CA
:101E900000E0002373B17B69B3F5807F05D023B1E7
:101EA00041F25331084801F0FDFD28F480487B6978
:101EB00048EA8318C4F80480E6617B6823642562DD
:101EC000BDE8F08100000140B4610008704700BF28
:101ED000704700BF704700BF704700BF704700BF2A
:101EE00010B5044603681A6912F0020F17D0DA68B9
:101EF00012F0020F13D06FF002021A610123037671
:101F000003689B6913F0030F02D0FFF7E3FF04E0BF
:101F1000FFF7DEFF2046FFF7DFFF0023237623686D
:101F20001A6912F0040F19D0DA6812F0040F15D0F4
:101F30006FF004021A610223237623689B6913F46D
:101F4000407F03D02046FFF7C5FF05E02046FFF79E
:101F5000BFFF2046FFF7C0FF0023237623681A69DE
:101F600012F0080F19D0DA6812F0080F15D06FF0D0
:101F700008021A61042323762368DB6913F0030F38
:101F800003D02046FFF7A6FF05E02046FFF7A0FF9D
:101F90002046FFF7A1FF0023237623681A6912F079
:101FA000100F19D0DA6812F0100F15D06FF0100270
:101FB0001A61082323762368DB6913F4407F03D07A
:101FC0002046FFF787FF05E02046FFF781FF204608
:101FD000FFF782FF0023237623681A6912F0010FAE
:101FE00009D0DA6812F0010F05D06FF001021A6112
:101FF0002046FFF76BFF23681A6912F0800F09D0A3
:10200000DA6812F0800F05D06FF080021A61204666
:1020100000F0FEFC23681A6912F0400F09D0DA685C
:1020200012F0400F05D06FF040021A612046FFF712
:1020300055FF23681A6912F0200F09D0DA6812F0F0
:10204000200F05D06FF020021A61204600F0DEFC60
:1020500010BD00BF0368454A904214D0B0F1804FD4
:1020600013D0A2F57C42904211D002F580629042DA
:102070000FD002F5806290420DD002F57842904276
:102080000BD101220AE0012208E0012206E0012230
:1020900004E0012202E0012200E000221AB123F054
:1020A00070034A681343314A90422CD0B0F1804FFC
:1020B0002BD0A2F57C42904229D002F5806290425A
:1020C00027D002F58062904225D002F578429042F6
:1020D00023D002F57052904221D002F580629042E6
:1020E0001FD002F5806290421DD0A2F59832904236
:1020F0001BD002F58062904219D002F580629042B6
:1021000017D1012216E0012214E0012212E001227F
:1021100010E001220EE001220CE001220AE001227F
:1021200008E0012206E0012204E0012202E001228F
:1021300000E000221AB123F44073CA68134303601D
:102140008B68C3620B688362084B984205D003F525
:102150008063984203D1012302E0012300E00023C1
:102160000BB10B6903630123436170470000014019
:10217000002870D010B504460368384A934237D01F
:10218000B3F1804F34D0A2F57C42934230D002F5B7
:10219000806293422CD002F58062934228D002F5EF
:1021A0008062934224D002F58062934220D002F5EF
:1021B000704293421CD002F57052934218D002F53F
:1021C0008062934214D002F58062934210D0A2F54F
:1021D000983293420CD002F58062934208D002F507
:1021E0008062934204D040F2F3311D4801F05AFC62
:1021F000A36863B1102B0AD0202B08D0402B06D047
:10220000602B04D04FF47D71154801F04BFC23691D
:1022100053B1B3F5807F07D0B3F5007F04D040F20F
:10222000F5310F4801F03EFC94F8393013F0FF0F00
:1022300005D1002384F83830204601F0D1FC022378
:1022400084F83930211D2068FFF704FF012384F84A
:102250003930002010BD0120704700BF0000014050
:10226000B46100082DE9F04104460E46036A23F0EC
:1022700010030362056AD0F80480876927F4E643F7
:102280000F6843EA072725F020038D6843EA051508
:10229000164B984205D003F58063984203D1012381
:1022A00002E0012300E00023BBB1F36833B1082B47
:1022B00004D041F2FB110E4801F0F4FB25F080053B
:1022C000F36845EA031525F0400528F44068736972
:1022D00048EA8308B36948EA8308C4F80480A76120
:1022E0007368A3632562BDE8F08100BF0000014070
:1022F000B461000890F83830012B00F02E8170B5E1
:1023000016460D460446012380F8383062B1042A8F
:102310000AD0082A08D00C2A06D0182A04D040F681
:102320003E418F4801F0BEFB2B68602B06D0702B1E
:1023300004D040F63F418A4801F0B4FBAB6833B1AA
:10234000022B04D04FF44461854801F0ABFB2B69AC
:1023500033B1042B04D040F64141814801F0A2FB87
:10236000022384F839300C2E00F2F080DFE816F0FA
:102370000D00EE00EE00EE005500EE00EE00EE0067
:102380008E00EE00EE00EE00BE002368754A934218
:102390002FD0B3F1804F2CD0A2F57C42934228D0AD
:1023A00002F58062934224D002F58062934220D0ED
:1023B00002F5784293421CD002F57052934218D035
:1023C00002F58062934214D002F58062934210D0ED
:1023D000A2F5983293420CD002F58062934208D065
:1023E00002F58062934204D040F649415C4801F016
:1023F00059FB29462068FFF79DFC2268936943F04A
:10240000080393612268936923F0040393612268AF
:1024100091692B690B43936198E02368514A934279
:102420001FD0B3F1804F1CD0A2F57C42934218D04C
:1024300002F58062934214D002F58062934210D07C
:1024400002F5784293420CD002F57052934208D0C4
:10245000A2F59432934204D040F65841404801F02E
:1024600021FB29462068FFF7FDFE2268936943F4AB
:10247000006393612268936923F480639361226807
:102480009369296943EA012393615FE02368354A30
:10249000934217D0B3F1804F14D0A2F57C429342FF
:1024A00010D002F5806293420CD002F58062934214
:1024B00008D002F57842934204D040F6674128489C
:1024C00001F0F0FA29462068FFF768FC2268D3691A
:1024D00043F00803D3612268D36923F00403D36176
:1024E0002268D1692B690B43D3612FE023681D4A11
:1024F000934217D0B3F1804F14D0A2F57C4293429F
:1025000010D002F5806293420CD002F580629342B3
:1025100008D002F57842934204D040F67641104844
:1025200001F0C0FA29462068FFF792FC2268D369BF
:1025300043F40063D3612268D36923F48063D361D9
:102540002268D369296943EA0123D361012384F80E
:102550003930002084F8380070BD0220704700BF79
:10256000B46100080000014070B504460E461546EF
:10257000264B98422FD0B0F1804F2CD0A3F57C434E
:10258000984228D003F58063984224D003F58063F5
:10259000984220D003F5784398421CD003F570533D
:1025A000984218D003F58063984214D003F58063F5
:1025B000984210D0A3F5983398420CD003F580636D
:1025C000984208D003F58063984204D041F27E21FE
:1025D0000F4801F067FA66B1042E0AD0082E08D021
:1025E0000C2E06D0182E04D041F27F21084801F0AD
:1025F00059FA012303FA06F2236A23EA020323624B
:10260000236AB5401D43256270BD00BF0000014034
:10261000B461000838B504460D4603683E4A93424B
:1026200012D0B3F1804F0FD0A2F57C4293420BD071
:1026300002F58062934207D002F58062934203D094
:1026400002F57842934206D135B3042D24D0082DEB
:1026500022D00C2D20D0314A934202D1E5B1042D75
:102660001AD02F4A934200D1B5B12E4A934200D1DD
:1026700095B12D4A934202D175B1042D0CD02B4A4D
:10268000934200D145B12A4A934200D125B140F28C
:102690009941284801F006FA0C2D1FD8DFE805F013
:1026A000071E1E1E0D1E1E1E131E1E1E1900226852
:1026B000D36843F00203D36010E02268D36843F08C
:1026C0000403D3600AE02268D36843F00803D360B0
:1026D00004E02268D36843F01003D3600122294646
:1026E0002068FFF741FF23680B4A934205D002F5AB
:1026F0008062934203D1012202E0012200E0002225
:102700001AB15A6C42F400425A642268136843F0CA
:1027100001031360002038BD00000140004001406B
:10272000004401400048014000180040001C0040E7
:1027300000200040B461000870B504460E461546FE
:10274000184B984217D0B0F1804F14D0A3F57C43BA
:10275000984210D003F5806398420CD003F5806353
:10276000984208D003F57843984204D040F239717A
:102770000D4801F097F946B1042E06D0082E04D07A
:1027800040F23A71084801F08DF9042303FA06F289
:10279000236A23EA02032362236AB5401D432562AC
:1027A00070BD00BF00000140E461000838B5044678
:1027B0000D460368104A934203D002F580629342AB
:1027C00004D145B1042D06D0082D04D04FF4647116
:1027D0000A4801F067F9042229462068FFF7ACFF98
:1027E0002268536C43F4004353642268136843F037
:1027F00001031360002038BD00000140E4610008BF
:1028000038B504460D460368374A934227D0B3F1E2
:10281000804F24D0A2F57C42934220D002F5806202
:1028200093421CD002F58062934218D002F5806278
:10283000934214D002F58062934210D002F57042A8
:1028400093420CD002F57052934208D0A2F5943214
:10285000934204D04FF4CB61244801F023F92B6854
:1028600093B1102B10D0202B0ED0302B0CD0402B3E
:102870000AD0502B08D0602B06D0702B04D040F229
:1028800059611A4801F00EF96B68802B05D023B10D
:1028900040F25A61154801F005F994F83830012BDF
:1028A0001FD0012284F83820022384F839302168AF
:1028B0004B6823F070034B60216848682B68034322
:1028C0004B6021688B6823F080038B6021688868E7
:1028D0006B6803438B6084F83920002084F838004B
:1028E00038BD022038BD00BF00000140E46100088F
:1028F00038B505460C460368424A934217D0B3F1F7
:10290000804F14D0A2F57C42934210D002F5806231
:1029100093420CD002F58062934208D002F57842CF
:10292000934204D040F27E61374801F0BBF823683F
:10293000B3F5006F05D023B140F27F61324801F05A
:10294000B1F86368B3F5806F05D023B14FF4D0615F
:102950002D4801F0A7F8A3686BB1B3F5807F0AD0CA
:10296000B3F5007F07D0B3F5407F04D040F281611A
:10297000254801F097F82369B3F5805F05D023B1AE
:1029800040F28261204801F08DF863693BB1B3F5F4
:10299000005F04D040F283611B4801F083F8A36913
:1029A000B3F5804F05D023B140F28461164801F0A1
:1029B00079F8E368FF2B04D940F28561124801F0F1
:1029C00071F895F83830012B1AD0012085F83800BD
:1029D000022385F839302968226863681A43A3689E
:1029E0001A43E3681A4323691A4363691A43A369C4
:1029F00013434B6485F83900002085F8380038BD52
:102A0000022038BD00000140E4610008704700BFAB
:102A1000704700BF90F83930DBB2212B2AD1836890
:102A2000B3F5805F0FD1036A02681B88C3F3080304
:102A3000536003691BB9036A0233036209E0036A46
:102A40000133036205E00268036A591C01621B78C6
:102A50005360C38C013B9BB2C3846BB90268D368DB
:102A600023F08003D3600268D36843F04003D3604F
:102A70000020704702207047002070472DE9F8437E
:102A800004464268B14B9A4204D940F2DD61B04835
:102A900001F008F8E3683BB1B3F5005F04D040F201
:102AA000DE61AB4800F0FEFF236953B1B3F5806FE0
:102AB00007D0B3F5C06F04D040F2DF61A44800F046
:102AC000F1FF63694FF6F372134200D123B94FF45B
:102AD000DC619F4800F0E6FF21680B6923F4405257
:102AE000E36813430B612068C36823F4164222F0A5
:102AF0000C02A1682369194363691943E3690B4315
:102B00001343C36021684B6923F44072A3691343E4
:102B10004B61E369B3F5004F40F0BB80276803F1D8
:102B2000804303F510439F4203D003F580639F4227
:102B300057D1FFF7D5F800EB800000EB8000656807
:102B40006D00B0FBF5F5834EA6FB05356D092D0133
:102B5000FFF7C6F800EB800000EB800063685B00C5
:102B6000B0FBF3F9FFF7BCF800EB800000EB80004E
:102B700063685B00B0FBF3F3A6FB03235B094FF034
:102B8000640808FB1393DB003233A6FB03235B09C5
:102B90005B0003F4F8731D44FFF7A2F800EB80001C
:102BA00000EB800063685B00B0FBF3F9FFF798F877
:102BB00000EB800000EB800063685B00B0FBF3F388
:102BC000A6FB03235B0908FB13984FEAC80808F12A
:102BD0003208A6FB0836C6F342163544BD60BDE890
:102BE000F883FFF765F800EB800000EB8000656874
:102BF0006D00B0FBF5F5574EA6FB05356D092D01AF
:102C0000FFF756F800EB800000EB800063685B0084
:102C1000B0FBF3F9FFF74CF800EB800000EB80000D
:102C200063685B00B0FBF3F3A6FB03235B094FF083
:102C3000640808FB1393DB003233A6FB03235B0914
:102C40005B0003F4F8731D44FFF732F800EB8000DB
:102C500000EB800063685B00B0FBF3F9FFF728F836
:102C600000EB800000EB800063685B00B0FBF3F3D7
:102C7000A6FB03235B0908FB13984FEAC80808F179
:102C80003208A6FB0836C6F342163544BD60BDE8DF
:102C9000F8832668304B9E4203D003F580639E4242
:102CA0005CD1FFF71DF800EB800000EB8000656849
:102CB000AD00B0FBF5F5274FA7FB05356D092D01DC
:102CC000FFF70EF800EB800000EB800063689B00CC
:102CD000B0FBF3F8FFF704F800EB800000EB800096
:102CE00063689B00B0FBF3F3A7FB03235B094FF082
:102CF000640909FB13831B013233A7FB03235B0920
:102D000003F0F0031D44FEF7EBFF00EB800000EB47
:102D1000800063689B00B0FBF3F8FEF7E1FF00EB77
:102D2000800000EB800063689B00B0FBF3F3A7FB1F
:102D300003235B0909FB13831B013233A7FB032326
:102D4000C3F343131D44B560BDE8F883A037A0006A
:102D5000186200081F85EB5100100140FEF7A8FF24
:102D600000EB800000EB80006568AD00B0FBF5F57E
:102D7000254FA7FB05356D092D01FEF799FF00EBE7
:102D8000800000EB800063689B00B0FBF3F8FEF767
:102D90008FFF00EB800000EB800063689B00B0FBBE
:102DA000F3F3A7FB03235B094FF0640909FB1383CB
:102DB0001B013233A7FB03235B0903F0F0031D441F
:102DC000FEF776FF00EB800000EB800063689B005D
:102DD000B0FBF3F8FEF76CFF00EB800000EB800027
:102DE00063689B00B0FBF3F3A7FB03235B0909FBBC
:102DF00013831B013233A7FB0323C3F343131D4487
:102E0000B560BDE8F88300BF1F85EB51002800F0D6
:102E1000868010B5044683691BB30368414A934218
:102E20000FD0A2F54C4293420BD002F58062934240
:102E300007D002F54C42934203D0FB213A4800F000
:102E400031FEA36953B3B3F5807F27D0B3F5007F7C
:102E500024D0B3F5407F21D0FC21334800F022FE7E
:102E60001CE003682F4A934218D0A2F54C429342CB
:102E700014D002F58062934210D002F58062934232
:102E80000CD002F58062934208D002F5444293428E
:102E900004D04FF48071244800F004FEA3683BB1D5
:102EA000B3F5805F04D04FF481711F4800F0FAFD44
:102EB000E3693BB1B3F5004F04D040F203111A4867
:102EC00000F0F0FD94F8393013F0FF0F05D1002326
:102ED00084F83830204600F0BFFE242384F83930CF
:102EE0002268D36823F40053D3602046FFF7C6FD61
:102EF0002268136923F4904313612268536923F015
:102F00002A0353612268D36843F40053D36000203E
:102F1000E063202384F8393084F83A3010BD012072
:102F2000704700BF001001401862000838B590F8E3
:102F30003940E4B2202C2FD100292FD0002A2FD0E5
:102F400090F83830012B2DD013460546012280F829
:102F5000382001628384C3840024C463212280F862
:102F60003920026B1048D0632A6B104810642A6B1A
:102F70000F4890642A680432286BFEF72DF82B68FE
:102F80006FF040021A602A68536943F0800353616E
:102F900085F83840204638BD022038BD012038BDB4
:102FA000012038BD022038BD3530000885300008CA
:102FB0006D31000838B590F83A40E4B2202C29D1A0
:102FC00051B35AB390F83830012B29D013460A4632
:102FD0000546012180F83810826283850024C4638D
:102FE000222180F83A10416B0E48C863696B0E4885
:102FF0000864696B0D48886429680431686BFDF7C3
:10300000EBFF2A68536943F04003536185F8384069
:10301000204638BD022038BD012038BD012038BD12
:10302000022038BD913000085D3100086D31000884
:10303000704700BF08B5836B0268126812F4807F86
:103040000CD10022DA8419684A6922F080024A61B0
:103050001A68D36843F04003D36008BD1846FFF7F1
:10306000E7FF08BD08B50168CB6823F04003CB60DB
:10307000202380F83930FFF7DBFF002008BD00BFB8
:10308000704700BF08B5806BFFF7FAFF08BD00BFAF
:1030900008B5836B0268126812F4807F09D10022A0
:1030A000DA8519684A6922F040024A61202283F8D1
:1030B0003A20184600F01AFC08BD00BF08B590F889
:1030C0003A30DBB2222B43D18368B3F5805F13D152
:1030D000826A036943B903685B68C3F3080313801A
:1030E000836A0233836218E003685B68DBB2138093
:1030F000836A0133836210E0036933B9836A5A1C1F
:103100008262026852681A7007E0826A531C836206
:1031100003685B6803F07F031370C38D013B9BB2B0
:10312000C385BBB90268D36823F02003D36002686B
:10313000D36823F48073D3600268536923F00103DA
:103140005361202380F83A3000F0D0FB002008BD06
:10315000022008BD002008BD704700BF08B5806B85
:10316000FFF7FAFF08BD00BF704700BF08B5806BCE
:103170000023C385C384202380F8393080F83A3097
:10318000C36B43F01003C363FFF7EEFF08BD00BF3E
:1031900010B584B0044603681968DA6811F0010FAD
:1031A0000DD002F4807252B1002200921A6800928F
:1031B0005A680092009AC26B42F00102C263196819
:1031C0005A6902F0010211F0020F0BD052B1002235
:1031D00001921A6801925A680192019AE26B42F0D8
:1031E0000402E26319685A6902F0010211F0040F47
:1031F0000BD052B1002202921A6802925A680292CF
:10320000029AE26B42F00202E26319685A6902F024
:10321000010211F0080F0BD052B1002203921A687C
:1032200003925A680392039AE26B42F00802E26347
:103230001A68DB6803F0200312F0200F03D013B1EB
:103240002046FFF73BFF23681A68DB6803F0800322
:1032500012F0800F03D013B12046FFF7DBFB236889
:103260001A68DB6803F0400312F0400F03D013B17B
:103270002046FFF7F7FEE36B3BB1202384F839309B
:1032800084F83A302046FFF76FFF04B010BD00BF4E
:10329000FEE700BF08B50D4B1B6813B90C4A0B4B7A
:1032A0001A600A4B1A68C31C23F00303134409492C
:1032B0008B4206D902F04EFA0C2303604FF0FF3028
:1032C00008BD02490B60104608BD00BF7C0000200D
:1032D0002808002000FC012001230360014B0B6043
:1032E000704700BF040000200FB400B583B004ABEA
:1032F00053F8042B01938021064802F05DFA002860
:1033000003DD0146034800F039F803B05DF804EB33
:1033100004B07047840000202DE9F04385B00446D6
:103320000F46435613BB042528462146ABBE044630
:103330001FE03546102E28BF1025002306E014F9A3
:10334000011B04AA1A4402F8101C0133AB42F6D345
:1033500004AA1344002203F8102CE9464FF0040895
:1033600040464946ABBE8046761B00E00E46002E26
:10337000DFD1384605B0BDE8F08300BF08B5FFF7E0
:10338000CBFF08BD08B500F097F8054B054A9A60D9
:10339000D3F8882042F47002C3F8882008BD00BF2B
:1033A00000ED00E000000008F8B504460D461746A1
:1033B0001E462648FFF798FF21682548FFF794FF2F
:1033C00061682448FFF790FFA1682348FFF78CFF4E
:1033D000E1682248FFF788FF21692148FFF784FF51
:1033E00061692048FFF780FFA1691F48FFF77CFF54
:1033F000E1691E48FFF778FF1D48FFF775FF294672
:103400001C48FFF771FF1C4CE16A1C48FFF76CFF7A
:10341000216B1B48FFF768FFE16B1A48FFF764FF59
:1034200015F0800F03D039461748FFF75DFF15F4FC
:10343000004F03D031461548FFF756FF1448FFF7F9
:1034400053FF06991348FFF74FFFF8BD4862000885
:103450005862000868620008786200088862000804
:1034600098620008A8620008B8620008C8620008F4
:10347000D8620008E462000800ED00E0F462000891
:103480000463000814630008246300083463000820
:10349000446300084C63000883691A888A4207D194
:1034A0000268033A012A05D802338361012070477C
:1034B00000207047002070470F49D1F8883043F44E
:1034C0007003C1F888300D4B1A6842F001021A608F
:1034D000002098601A6822F0847222F480321A6008
:1034E000074A5A601A6822F480221A60D8604FF0A6
:1034F00000638B60704700BF00ED00E000380240C1
:1035000010300024224B9B6803F00C03042B07D0DF
:10351000082B09D0002B2DD11E4A1F4B1A602CE01E
:103520001E4A1D4B1A6028E0194B5A685B6803F06D
:103530003F0312F4800F09D0184AB2FBF3F2144B88
:103540005B68C3F3881303FB02F208E0114AB2FB85
:10355000F3F30F4A5168C1F3881101FB03F20C4BDE
:103560005B68C3F3014301335B00B2FBF3F30A4A28
:10357000136002E0074A084B1A60054B9B68C3F3CF
:103580000313074AD15C044A1368CB4013607047A9
:10359000003802400024F4000C00002000127A00E1
:1035A0009063000808B5FCF74FFF00F00DFAFFF735
:1035B000A9FF08BD2DE9F04F8BB000240094394BD2
:1035C0001A6B42F004021A631A6B02F004020092B2
:1035D000009A01941A6B42F080021A631A6B02F08F
:1035E00080020192019A02941A6B42F001021A635E
:1035F0001A6B02F001020292029A03941A6B42F0D3
:1036000002021A631A6B02F002020392039A0494F4
:103610001A6B42F010021A631B6B03F01003049341
:10362000049B4FF443430593069407941E4D05A94C
:103630002846FDF7E5FD4FF0030BCDF814B0012649
:10364000069607940894DFF864A005A95046FDF794
:10365000D7FD4FF40049CDF81490069607940894CE
:10366000DFF84C8005A94046FDF7CAFDC027059745
:1036700006960794089405A92846FDF7C1FD224641
:1036800059465046FDF754FF224649464046FDF74D
:103690004FFF224639462846FDF74AFF0BB0BDE8EA
:1036A000F08F00BF0038024000080240001C0240BA
:1036B0000010024010B582B000240194114B1A6B27
:1036C00042F480021A631B6B03F480030193019B95
:1036D000224621463820FDF739FA3820FDF778FADE
:1036E000224621463A20FDF731FA3A20FDF770FADA
:1036F000224621464620FDF729FA4620FDF768FAC2
:1037000002B010BD00380240F0B585B0244C254B06
:1037100023604FF4803363600026A6600125256195
:10372000A5612662E662E6600727E76125636561B9
:103730002046FCF75BFF009601950226029669463B
:103740002046FDF703F90095019669462046FDF7EE
:10375000FDF800960323019369462046FDF7F6F82D
:10376000062500950423019369462046FDF7EEF8EF
:1037700000970523019369462046FDF7E7F80823E3
:103780000093019569462046FDF7E0F80923009370
:10379000019769462046FDF7D9F805B0F0BD00BF96
:1037A000E80100200020014010B582B0094C0A4B0E
:1037B00023602046FDF75AFA0022009201926946E2
:1037C0002046FDF775FA102269462046FDF770FA8B
:1037D00002B010BDC80200200074004030B591B0A6
:1037E000334C344B236000256560A5606423E3609F
:1037F000256165612046FEF7BBFC0E950F950EA96D
:103800002046FEF7FDFF0795089509950A950B954B
:103810004FF400530C930D9507A92046FFF768F865
:103820006023009332230193029503950495059537
:1038300006952A4669462046FEF75CFD0422694645
:103840002046FEF757FD082269462046FEF752FD46
:103850000C2269462046FEF74DFD204600F0E0F9B7
:1038600029462046FEF7D6FE29462046FEF79EFF53
:1038700004212046FEF7CEFE04212046FEF796FFE7
:1038800008212046FEF7C6FE08212046FEF78EFFDF
:103890000C212046FEF7BEFE0C212046FEF786FFD7
:1038A0002268D36843F00103D36011B030BD00BF7C
:1038B000380300200000014008B50A480A4B0360A5
:1038C0004FF4E13343604FF4805383600023C360BF
:1038D0004FF4806202610C2242618361C361FFF791
:1038E00095FA08BD8802002000100140F8B50023B9
:1038F00004E0294AD15C294AD1540133092BF8DD6F
:10390000254C274D0A2221462846FFF70FFB0A22A5
:1039100021462846FFF74EFB2278032A3BD8214B4D
:103920001A702346657820490D70A0784870E678B3
:103930001E4C2670197961705F791D4C27709F7934
:103940001C4C277093F807E01B4F87F800E01C7AA7
:103950007C705B7A194F3B7000EB0520184DA86214
:1039600001EB0621E9622AB904EB0E246C63AC6317
:10397000EC632C642BB900224FF400411148FDF791
:10398000D7FD0E4B1B78012B05D101224FF40041CE
:103990000C48FDF7CDFDF8BD800100207803002024
:1039A0008802002074030020200100202401002050
:1039B00034030020B80700201C0100208C010020E7
:1039C000000001400010024070B594B00024019442
:1039D000234B1A6C42F080521A641B6C03F0805324
:1039E0000193019B02941F4B1A6842F480421A60B3
:1039F0001B6803F480430293029B02250895012370
:103A00000B9310230C930E950F9408231093A82367
:103A1000119312950426139608A8FDF7A3FD0F2312
:103A20000393049505944FF4A05306934FF48053E9
:103A30000793052103A8FDF7B9FFFEF71FF90A4B0D
:103A4000A3FB00308009FDF7D9F83046FDF7ECF80C
:103A5000224621464FF0FF30FDF778F814B070BDD4
:103A60000038024000700040D34D621008B5FCF7EA
:103A7000EBFCFFF7A9FFFFF79DFDFFF71BFEFFF72C
:103A800043FEFFF791FEFFF7A9FEFFF715FF0A229D
:103A900002490348FFF78EFAFEE700BF80010020CD
:103AA00088020020704700BF08B50320FDF730F8FA
:103AB000002211466FF00B00FDF748F80022114676
:103AC0006FF00A00FDF742F8002211466FF009007E
:103AD000FDF73CF8002211466FF00300FDF736F8C1
:103AE000002211464FF0FF30FDF730F808BD00BF4F
:103AF0000268244B9A4244D170B586B00446002631
:103B0000009603F58C335A6C42F480725A645B6CF5
:103B100003F480730093009BC72301930325029550
:103B2000039601A91848FDF76BFB019502950396D2
:103B300001A91648FDF764FB154D164B2B606E600E
:103B4000AE60EE604FF480632B614FF480536B6185
:103B50004FF48043AB614FF48073EB614FF400335B
:103B60002B626E622846FDF727F9A563AC633246E7
:103B700002211220FCF7EAFF1220FDF729F806B017
:103B800070BD704700200140000002400004024068
:103B9000DC0200201064024002680F4B9A421AD1E6
:103BA00000B587B00021009103F5E2331A6C42F0B2
:103BB00000521A641B6C03F000530093009B3023E7
:103BC000019303230293039101A90448FDF718FB15
:103BD00007B05DF804FB704700740040000002402D
:103BE00002680E4B9A4218D100B583B000220192B0
:103BF00003F59C33596C41F0010159645B6C03F08F
:103C000001030193019B01211920FCF79FFF19205B
:103C1000FCF7DEFF03B05DF804FB704700000140D5
:103C200002680B4B9A4212D100B587B04FF4D443CF
:103C3000019302230293002303930493012305932A
:103C400001A90448FDF7DCFA07B05DF804FB7047F2
:103C5000000001400010024002682F4B9A4259D1E7
:103C60002DE9F04786B004460025009503F594330E
:103C70005A6C42F010025A645B6C03F0100300931C
:103C8000009B4FF4C0630193022302930127039723
:103C9000032304930723059301A92048FDF7B0FAF5
:103CA0001F4E204B33604FF0006AC6F804A0B56089
:103CB000F5604FF48069C6F810907561B561F561E3
:103CC0004FF44038C6F8208075623046FDF774F82E
:103CD0006663B463144E154B3360C6F804A04023EA
:103CE000B360F560C6F810907561B561F561C6F80E
:103CF000208075623046FDF75FF82663B4632A467C
:103D000039462520FCF722FF2520FCF761FF06B08D
:103D1000BDE8F087704700BF00100140000002407E
:103D2000300200204064024090010020B86402404C
:103D300008B5FDF7EFFF08BDFEE700BFFEE700BFD7
:103D4000FEE700BFFEE700BF08B5FCF797FBFCF7F6
:103D500089FF08BD08B50248FCF738FD08BD00BF63
:103D6000E8010020000000002DE9F04F2DED048B4C
:103D700089B0CF48FEF7B4F8CE4B1B78022B40F049
:103D8000D380CD4A138801339BB21380CB4A12688B
:103D90000A2A02D10021C94A1160C8490A681C0ACE
:103DA000C7488454541C035502320A60C54AD26A7B
:103DB000934202D30022C04B1A8060230193322326
:103DC0000293002303930493059306930793B84C3F
:103DD00004220DEB02012046FEF78CFA0421204656
:103DE000FEF718FC04212046FEF7E0FCB64F3B78B6
:103DF00007EE903AF8EE677A9FEDB49A87EE898ADB
:103E0000B34E337807EE903AF8EE677ADFEDB18A79
:103E100067EEA87A77EEA77A17EE900A01F0E4F938
:103E2000A1A3D3E9002301F033FA80468946A24DCD
:103E3000288807EE900AF8EE677A17EE900A01F0EC
:103E4000D3F942464B4601F023FA0022A24B01F07F
:103E50001FFA01F02FFC00EE100A00F025FA28EE00
:103E6000000A9E4C84ED000A3B7807EE903AF8EE8B
:103E7000677A87EE890AB1EE408A337807EE903A86
:103E8000F8EE677A67EEA87A77EEA77A17EE900ACF
:103E900001F0AAF984A3D3E9002301F0F9F9064659
:103EA0000F46288807EE900AF8EE677A17EE900A18
:103EB00001F09AF932463B4601F0EAF90022864BBE
:103EC00001F0E6F901F0F6FB00EE100A00F0ECF963
:103ED00028EE000A824B83ED000A7A4AD2ED0B7A73
:103EE00092ED0B7AB8EE477AD4ED006A27EE267A87
:103EF000F8EE677A77EE877AFCEEE77A17EE903A7B
:103F00005B085363D2ED0B7A92ED0B7AB8EE477AE9
:103F100020EE070AF8EE677A37EE800ABCEEC00A98
:103F200010EE103A5B089363624B1B78012B40F054
:103F30008981614A138801339BB213805F4A1268FA
:103F40000A2A02D100215D4A11605C490A681C0AF4
:103F50005B488454541C035502320A60594AD26AA1
:103F6000934202D30022544B1A80602301933223E0
:103F7000029302230393002304930593069307936C
:103F80004B4C04220DEB02012046FEF7B3F904214D
:103F90002046FEF73FFB04212046FEF707FC4A4E71
:103FA000337807EE903AF8EE677A9FED489A87EEFD
:103FB000898A474D2B7807EE903AF8EE677ADFED65
:103FC000458A67EEA87A77EEA77A17EE900A01F095
:103FD0000BF935A3D3E9002301F05AF9804689464D
:103FE000354C208807EE900AF8EE677A17EE900AB3
:103FF00001F0FAF842464B4601F04AF90022364BEE
:1040000001F046F901F056FB00EE100A00F04CF901
:1040100028EE000A314F87ED000A337807EE903A18
:10402000F8EE677A87EE898A2B7807EE903AF8EEF9
:10403000677A67EEA87A77EEA77A17EE900A01F012
:10404000D3F819A3D3E9002301F022F98046894669
:10405000208807EE900AF8EE677A17EE900A01F0D2
:10406000C3F842464B4601F013F900221A4B01F007
:104070000FF901F01FFB00EE100A00F015F928EE11
:10408000000ADFF85CA08AED000A337807EE903A68
:10409000F8EE677A87EE898A2B7807EE903AF8EE89
:1040A000677A67EEA87A1DE0A7E8482EFF2109404D
:1040B00038030020740300200801002004010020C0
:1040C0007803002000000140B80700200000C8422B
:1040D00034030020000070420000503F1808002008
:1040E0001C08002077EEA77A17EE900A01F07CF802
:1040F00057A3D3E9002301F0CBF8804689462088F6
:1041000007EE900AF8EE677A17EE900A01F06CF865
:1041100042464B4601F0BCF800224F4B01F0B8F884
:1041200001F0C8FA00EE100A00F0BEF828EE000A0E
:10413000DFF830B18BED000A337807EE903AF8EEF5
:10414000677A87EE898A2B7807EE903AF8EE677ADD
:1041500067EEA87A77EEA77A17EE900A01F044F896
:104160003BA3D3E9002301F093F8804689462088D9
:1041700007EE900AF8EE677A17EE900A01F034F82D
:1041800042464B4601F084F80022334B01F080F8A0
:1041900001F090FA00EE100A00F086F828EE000A0E
:1041A0002E4B83ED000A2E4BD3ED0B7A93ED0B7A59
:1041B000B8EE477AD7ED006A27EE267AF8EE677AEE
:1041C00077EE877AFCEEE77A17EE902A52085A6368
:1041D000D3ED0B7A93ED0B7AB8EE477ADAED006AFD
:1041E00027EE267AF8EE677A77EE877AFCEEE77AA2
:1041F00017EE902A52089A63D3ED0B7A93ED0B7A5F
:10420000B8EE477ADBED006A27EE267AF8EE677A99
:1042100077EE877AFCEEE77A17EE902A5208DA6397
:10422000D3ED0B7A93ED0B7AB8EE477A20EE070ABE
:10423000F8EE677A37EE800ABCEEC00A10EE102A5C
:1042400052081A6409B0BDEC048BBDE8F08F00BFC2
:10425000A7E8482EFF2109400000503F2008002019
:10426000000001401408002008B50248FEF790FF46
:1042700008BD00BF8802002008B50248FCF7E6FE32
:1042800008BD00BFDC02002008B50248FCF7DEFED6
:1042900008BD00BF3002002008B50248FCF7D6FE7A
:1042A00008BD00BF9001002000B510EE103A214A71
:1042B00023F00043934283B01ADDB3F1FF4F04DBD8
:1042C00030EE400A03B05DF804FB684600F036F8B3
:1042D00000F0030001281DD0022811D008B3DDED45
:1042E000010A9DED000A00F075F9B1EE400AE9E718
:1042F0000020DFED110A00F007FD03B05DF804FBBC
:104300000120DDED010A9DED000A00F0FDFCB1EE9B
:10431000400AD7E7DDED010A9DED000A00F05AF9E9
:10432000D0E70120DDED010A9DED000A00F0ECFC74
:10433000C8E700BFD80F493F0000000070B510EE7D
:10434000103A964A23F00044944286B05FDD944AC6
:10435000944210EE106A1BDC002BDFED927A924A39
:1043600024F00F0440F3D580944270EE677A5ED05B
:104370009FED8E7A77EEC76A012377EEE67AC0ED7D
:10438000006A77EEC77AC0ED017A184606B070BDB4
:10439000874A944205465CDDB4F1FF4F3FDAE215EF
:1043A000863AA4EBC25307EE103AFDEEC76ADFED82
:1043B000817AF8EEE66A37EE667ACDED036A27EE8B
:1043C000277AFDEEC76AF8EEE66A37EE667ACDED3B
:1043D000046A67EE277AF5EE407AF1EE10FACDED39
:1043E000057A40F0B780F5EE406AF1EE10FA0CBFA6
:1043F00001230223704901910221009103A829465B
:1044000000F06AF9002EC0F29780034604E0002213
:1044100080ED000A42600023184606B070BD70EEC1
:10442000407A0023C0ED017AC0ED007AF4E7DFEDB9
:10443000636A9FED637A77EEE67A012377EEC76AC7
:1044400077EEE67AC0ED006A77EEC77AC0ED017AC2
:10445000E2E700F0A1FCDFED5B6ADFED525A9FED71
:10446000537AF6EE007AE0EE267AFDEEE77A17EE62
:10447000903AF8EEE76A1F2BB1EE666AA6EE250ABF
:1044800066EE877A1DDC5049581E24F0FF0251F871
:1044900020108A4215D030EE677A85ED007A30EE32
:1044A000470A002E30EE670A85ED010AB4DAB1EE54
:1044B000477AB1EE400A85ED007A85ED010A5B424C
:1044C000AAE730EE677AE41517EE102AC2F3C75256
:1044D000A21A082AE1DDDFED397A9FED397AF0EE94
:1044E000405AE6EE275A30EE650AA6EE270AF0EEAD
:1044F000407AD6EE877A35EEE77A17EE102AC2F3C5
:10450000C752A41A192C3ADC85ED007AB0EE650A80
:10451000C5E7944270EE277A1ED09FED247A77EE9D
:10452000876A4FF0FF3377EEE67AC0ED006A77EEE8
:10453000877AC0ED017A6FE795ED007AD5ED017AC3
:10454000B1EE477AF1EE677A434285ED007AC5ED28
:10455000017A61E703234DE7DFED186A9FED187AD2
:1045600077EEA67A4FF0FF3377EE876A77EEE67A3A
:10457000C0ED006A77EE877AC0ED017A4CE79FEDD7
:10458000137A9FED135AB0EE650AA6EE070A75EE90
:10459000C07AE6EE077AD6EE857A7CE7D80F493FF7
:1045A000E3CB1640800FC93FD00FC93F4344353796
:1045B000800F4943000080432064000800443537E1
:1045C00008A3852E84F9223FA063000800A3852E4E
:1045D00032318D2410EE103A23F00043B3F1485FDE
:1045E0002CDAFDEEC07A17EE903A002B60D020EE68
:1045F000007ADFED314A9FED315ADFED315A9FED00
:10460000316ADFED317ADFED316AA7EE245AE7EE49
:10461000055AA7EE256AE7EE067AE7EE276A66EE08
:10462000876A60EEC00AB6EE006AE7EE260AF7EE89
:10463000007AD7EE060A37EEE00A704720EE007ADD
:10464000DFED1D4A9FED1D5ADFED1D5A9FED1D6ADE
:10465000DFED1D7ADFED1D6A1D4AA7EE245A934255
:10466000E7EE055AA7EE256AE7EE067AE7EE276A37
:1046700066EE876AD5DD174A934214DC03F17F4367
:1046800007EE903AB7EE006A36EE676A60EEC00A4F
:10469000F6EE005AE7EE260AD7EE257A77EEE07AB4
:1046A00036EE670A7047B6EE076AF5EE027AEDE776
:1046B000B7EE000A704700BF4ED747ADF6740F3112
:1046C0007CF293B4010DD037610BB6BAABAA2A3D88
:1046D0009999993E0000483F2DE9F04F2DED048B4C
:1046E000D7B05F1EA44C649D0193D31E48BF131D19
:1046F00054F82560DB1023EAE37303F1010A8B46CB
:10470000F11902938146A2EBCA0AA3EB070314D462
:104710001944659801311AAA002BAABF50F823400A
:10472000DFED967A07EE904A03F10103A8BFF8EE99
:10473000E77A8B42E2EC017AEED1002EC0F2D4820D
:10474000019B42A806F1010E9C0000EB8E0E09EBC6
:1047500004013D46002FC0F2BF811AAB03EB850276
:10476000DFED867A04324B46F3EC016A32ED017AD2
:104770008B42E6EE877AF7D1E0EC017A704505F1DD
:104780000105E7D106F18043023B9B0006AA03F135
:104790000408DFED7C8A9FED7A8ACDF810B01344CF
:1047A0004C4490440393354656AB03EB8503002DF0
:1047B00013ED140A19DD42A901EB850305AA60EE89
:1047C000287AB0EE407AFDEEE77A73ED016AF8EEF2
:1047D000E77A8B42A7EEC87A37EEA60ABDEEC77A13
:1047E00017EE100A42F8040FE9D1504600F024FBFE
:1047F000B0EE409AB4EE000A29EE000A00F0D4FAB6
:10480000F2EE007AA0EE679ABAF1000FFDEEC97AD7
:1048100017EE90BAF8EEE77A39EE679A40F34181E5
:1048200005F1FF3E06ABCAF1080253F82E3043FAF9
:1048300002F000FA02F206A99B1ACAF1070241F837
:104840002E30834443FA02F1002937DD002D0BF1AD
:10485000010B40F32482002210460DF1140E8C4609
:1048600008E0C3F5807113B1CEF8001001200132C9
:1048700095420CDD5EF8043F0028F2D00132C3F10E
:10488000FF039542CEF800304FF00100F2DC6146A4
:10489000BAF1000F10DDBAF1010F00F00981BAF191
:1048A000020F09D16A1E06AB0DF1180E53F8223023
:1048B00003F03F034EF82230022965D0B5EE409A4E
:1048C000F1EE10FA72D105F1FF3E76450FDC05F1ED
:1048D0008042013A06AB03EB8202002052F8043911
:1048E000424540EA0300F9D1002840F00C81731ED4
:1048F00006AA52F82330002B40F0CE81039B4FF0E4
:10490000010E53F804290EF1010E002AF9D0AE442D
:104910006B1C73452DDC029A9818019A00F18040B7
:1049200051190EEB020C659A013802EB80001AAAAD
:1049300002EB810102EB8C0C42AA02EB830550F8DA
:10494000043F07EE903AF8EEE77A002FE1EC017AA7
:10495000DFED0A7A09DB4B460A46F3EC016A32EDD9
:10496000017AA342E6EE877AF7D16145E5EC017A58
:10497000E5D1754618E700BF386700080000000061
:10498000000080430000803BB7EE000A30EE499AF9
:10499000002893D05046059100F04EFA39EE409A27
:1049A0000599B5EE409AF1EE10FA8CD0B0EE490AB6
:1049B000CAF1000009EE90BA8846DDF810B000F0A8
:1049C0003BFA1FED117AB4EEC70AF1EE10FAC0F20D
:1049D00071815FED147A60EE277A06A9FDEEE77A21
:1049E0006B1CF8EEE77A0AF1080AA7EEC70AFDEE9B
:1049F000E77ABDEEC00A10EE102A41F8252017EE26
:104A0000902A41F823205046B7EE000A019300F0A7
:104A100013FA019B002BC0F259819F0042AC06AAF9
:104A2000381D04EB070E1FED297A10440EF1040225
:104A300070ED017AF8EEE77A67EE807A20EE070AE9
:104A400062ED017AA242F3D10DF5827C0025002EA1
:104A5000C0F21481A9489FEDAA7ADFEDAA7A7146C7
:104A6000002204E0954209DB043090ED007AF1EC7D
:104A7000016A01329642E6EE877AF3DAAEF1040E6D
:104A800056AA02EB8502F44542ED287A05F10105AC
:104A9000DDD1649A032A00F2AE80DFE802F0DCB5D3
:104AA000B55010D16B1E06AA52F823100912CBE69E
:104AB0006A1E06AB0DF1180E53F8223003F07F0387
:104AC0004EF82230F8E6F6EE007AB4EEE79AF1EE10
:104AD00010FA0BDA0021F1E6DFED8A7AE0EC017AD8
:104AE000704505F101057FF435AE4BE6002D0BF165
:104AF000010BC8BF02213FF7AEAEF7EE007A37EEEA
:104B0000C99A0221DAE606AA09EE90BA52F82E20D6
:104B1000DDF810B073468846AAF1080A002A7FF42F
:104B200072AF0EF18042013A06A901EB820252F8FF
:104B30000419013BAAF1080A0029F8D063E7002B09
:104B400040F3C18003F18042013A900056A9CD198B
:104B5000041D2EA9083015ED287A0C4408442FAD09
:104B600074ED017A77EE876A77EEE67A77EE877AE8
:104B7000B0EE667A60ED017AA842C4ED006AEFD12A
:104B8000012B40F3A080920056AB1F4402F10800B5
:104B90002EAB1844043217ED287A134430AC024689
:104BA00073ED017A77EE276A77EEE67A77EE877A09
:104BB000B0EE667A62ED017A9442C3ED006AEFD1FD
:104BC000DFED507A30ED017A844277EE877AF9D1C1
:104BD0004346002B65D0DDED2E6A9DED2F7AF1EE78
:104BE000677AF1EE666AB1EE477ACBED027ACBEDE9
:104BF000006A8BED017A19EE903A03F0070057B086
:104C0000BDEC048BBDE8F08F3A1D2EA8DFED3D7A98
:104C1000024432ED017A824277EE877AF9D1424638
:104C20007AB3DDED2E6AB1EE677A002B76EEE77A85
:104C30008BED007A0ADD2FA80122B0EC017A013257
:104C4000934277EE877AF8DA43460BB1F1EE677A52
:104C5000CBED017ACFE756AA3A44DFED2A7A9C3AA7
:104C600032ED017A013B591C77EE877AF8D1434641
:104C70000BB1F1EE677ACBED007ABCE7DFED217A7C
:104C8000FCE69DED2E7ACBED007A002B77EE677A6D
:104C9000D1DCCBED017AAEE74FF0010E37E6002014
:104CA000F6E52E9A2F9BCBED027ACBF80020CBF8BD
:104CB0000430A0E7BDEEC00A06A910EE102A2B466C
:104CC00041F825209FE6DFED0F7A81E7649A032AF9
:104CD00091D801A151F822F0F54C0008EF4C0008E2
:104CE000EF4C0008C74C0008019B9C004AE5DFED33
:104CF000057A94E7DFED037AB9E700BF446700085F
:104D00000000C93F0000000010EE103A23F00043FD
:104D1000B3F1485F04DAFDEEC07A17EE903A23B3A0
:104D200060EE007A9FED155ADFED155A9FED156A7A
:104D3000DFED156A9FED157AE7EE855A20EE275ACA
:104D4000A7EEA56AE7EE866AA7EEA67A70B127EE0F
:104D5000457AF6EE006AA0EEA67ADFED0D6AD7EE90
:104D6000870AE5EE260A30EE600A7047DFED096A31
:104D7000E7EE876AA5EE260A704700BFD3C92E2F3B
:104D8000342FD7B21BEF3836010D50B98988083C53
:104D9000ABAA2A3EABAA2ABE10EE103A23F000437B
:104DA00000EE103A704700BF10EE102A22F00041CA
:104DB000CB0D7F3B162B17DC002B10EE100A19DBF6
:104DC0001A4919410A4222D0DFED197A70EE277A8A
:104DD000F5EEC07AF1EE10FA19DD002A18DB20EAB0
:104DE000010300EE103A7047B1F1FF4F0FD330EEE0
:104DF000000A7047DFED0E7A70EE277AF5EEC07A82
:104E0000F1EE10FA03DD002A08DB9FED0A0A704775
:104E10004FF4000242FA03F31844E0E70029FFEEE2
:104E2000007A18BFB0EE670A704700BFFFFF7F002F
:104E3000CAF249710000000008B510EE103A33F0D4
:104E400000422DED028B11D0B2F1FF4F11D2B2F51D
:104E5000000F13D3D20D0244FE2A2EDC002A1ADDE5
:104E600023F0FF4343EAC25300EE103ABDEC028B3D
:104E700008BDBDEC028B30EE000A08BD1D4BDFED16
:104E80001E7A984220EE270A22DB10EE103AC3F376
:104E9000C752193ADFE712F1160F1EDA4CF25033FF
:104EA00098420ADC9FED158AF0EE400AB0EE480AFF
:104EB00000F02AF820EE080AD8E79FED118AF0EEFC
:104EC000400AB0EE480A00F01FF820EE080ACDE7CD
:104ED000DFED0A0A20EE200AC8E7193223F0FF436B
:104EE00043EAC253DFED077A00EE103A20EE270ABC
:104EF000BCE700BFB03CFFFF0000004C6042A20DC9
:104F0000CAF249710000003310EE103A23F000425B
:104F100010EE903A03F00043134300EE103A70474E
:104F200081F0004102E000BF83F0004330B54FEA5A
:104F300041044FEA430594EA050F08BF90EA020FC7
:104F40001FBF54EA000C55EA020C7FEA645C7FEA5A
:104F5000655C00F0E2804FEA5454D4EB5555B8BF7D
:104F60006D420CDD2C4480EA020281EA030382EAEE
:104F7000000083EA010180EA020281EA0303362D80
:104F800088BF30BD11F0004F4FEA01314FF4801C53
:104F90004CEA113102D0404261EB410113F0004F65
:104FA0004FEA03334CEA133302D0524263EB43031C
:104FB00094EA050F00F0A780A4F10104D5F1200EBA
:104FC0000DDB02FA0EFC22FA05F2801841F1000115
:104FD00003FA0EF2801843FA05F359410EE0A5F1E9
:104FE00020050EF1200E012A03FA0EFC28BF4CF01A
:104FF000020C43FA05F3C01851EBE37101F00045D0
:1050000007D54FF0000EDCF1000C7EEB00006EEBDC
:105010000101B1F5801F1BD3B1F5001F0CD3490866
:105020005FEA30004FEA3C0C04F101044FEA4452BD
:1050300012F5800F80F09A80BCF1004F08BF5FEA44
:10504000500C50F1000041EB045141EA050130BD24
:105050005FEA4C0C404141EB010111F4801FA4F1C7
:105060000104E9D191F0000F04BF01460020B1FA1C
:1050700081F308BF2033A3F10B03B3F120020CDA54
:105080000C3208DD02F1140CC2F10C0201FA0CF032
:1050900021FA02F10CE002F11402D8BFC2F1200C97
:1050A00001FA02F120FA0CFCDCBF41EA0C0190404D
:1050B000E41AA2BF01EB0451294330BD6FEA040496
:1050C0001F3C1CDA0C340EDC04F11404C4F1200281
:1050D00020FA04F001FA02F340EA030021FA04F393
:1050E00045EA030130BDC4F10C04C4F1200220FAEA
:1050F00002F001FA04F340EA0300294630BD21FA28
:1051000004F0294630BD94F0000F83F4801306BFED
:1051100081F480110134013D4EE77FEA645C18BFE1
:105120007FEA655C29D094EA050F08BF90EA020F78
:1051300005D054EA000C04BF1946104630BD91EA70
:10514000030F1EBF0021002030BD5FEA545C05D173
:105150004000494128BF41F0004130BD14F58004B2
:105160003CBF01F5801130BD01F0004545F0FE4126
:1051700041F470014FF0000030BD7FEA645C1ABF5B
:10518000194610467FEA655C1CBF0B46024650EA92
:10519000013406BF52EA033591EA030F41F40021BE
:1051A00030BD00BF90F0000F04BF0021704730B544
:1051B0004FF4806404F132044FF000054FF0000119
:1051C00050E700BF90F0000F04BF0021704730B5DA
:1051D0004FF4806404F1320410F0004548BF4042AF
:1051E0004FF000013EE700BF42004FEAE2014FEA04
:1051F00031014FEA02701FBF12F07F4393F07F4FDF
:1052000081F06051704792F0000F14BF93F07F4F10
:10521000704730B54FF4607401F0004521F0004153
:1052200020E700BF50EA010208BF704730B54FF0D9
:1052300000050AE050EA010208BF704730B511F0DE
:10524000004502D5404261EB41014FF4806404F116
:1052500032045FEA915C3FF4DCAE4FF003025FEA98
:10526000DC0C18BF03325FEADC0C18BF033202EB20
:10527000DC02C2F1200300FA03FC20FA02F001FA7A
:1052800003FE40EA0E0021FA02F11444C1E600BF19
:1052900070B54FF0FF0C4CF4E06C1CEA11541DBFCC
:1052A0001CEA135594EA0C0F95EA0C0F00F0DEF897
:1052B0002C4481EA030621EA4C5123EA4C5350EA7C
:1052C000013518BF52EA033541F4801143F48013CD
:1052D00038D0A0FB02CE4FF00005E1FB02E506F05E
:1052E0000042E0FB03E54FF00006E1FB03569CF0B3
:1052F000000F18BF4EF0010EA4F1FF04B6F5007FB9
:1053000064F5407404D25FEA4E0E6D4146EB06062A
:1053100042EAC62141EA55514FEAC52040EA5E50B3
:105320004FEACE2EB4F1FD0C88BFBCF5E06F1ED85D
:10533000BEF1004F08BF5FEA500E50F1000041EB94
:10534000045170BD06F0004646EA010140EA020041
:1053500081EA0301B4EB5C04C2BFD4EB0C0541EA63
:10536000045170BD41F480114FF0000E013C00F378
:10537000AB8014F1360FDEBF002001F0004170BD9C
:10538000C4F10004203C35DA0C341BDC04F11404B5
:10539000C4F1200500FA05F320FA04F001FA05F241
:1053A00040EA020001F0004221F0004110EBD3700E
:1053B00021FA04F642EB06015EEA430E08BF20EA3A
:1053C000D37070BDC4F10C04C4F1200500FA04F3DD
:1053D00020FA05F001FA04F240EA020001F000416F
:1053E00010EBD37041F100015EEA430E08BF20EAE2
:1053F000D37070BDC4F1200500FA05F24EEA020E2A
:1054000020FA04F301FA05F243EA020321FA04F058
:1054100001F0004121FA04F220EA020000EBD3700F
:105420005EEA430E08BF20EAD37070BD94F0000F0F
:105430000FD101F00046400041EB010111F4801F43
:1054400008BF013CF7D041EA060195F0000F18BFF4
:10545000704703F00046520043EB030313F4801F30
:1054600008BF013DF7D043EA0603704794EA0C0FEA
:105470000CEA135518BF95EA0C0F0CD050EA410600
:1054800018BF52EA4306D1D181EA030101F000417D
:105490004FF0000070BD50EA410606BF10461946A5
:1054A00052EA430619D094EA0C0F02D150EA0136B1
:1054B00013D195EA0C0F05D152EA03361CBF1046F2
:1054C00019460AD181EA030101F0004141F0FE4191
:1054D00041F470014FF0000070BD41F0FE4141F415
:1054E000780170BD70B54FF0FF0C4CF4E06C1CEA15
:1054F00011541DBF1CEA135594EA0C0F95EA0C0FCA
:1055000000F0A7F8A4EB050481EA030E52EA033584
:105510004FEA013100F088804FEA03334FF08055A5
:1055200045EA131343EA12634FEA022245EA1115D2
:1055300045EA10654FEA00260EF000419D4208BF83
:10554000964244F1FD0404F5407402D25B084FEA30
:105550003202B61A65EB03055B084FEA32024FF4DC
:1055600080104FF4002CB6EB020E75EB030E22BF39
:10557000B61A754640EA0C005B084FEA3202B6EBF9
:10558000020E75EB030E22BFB61A754640EA5C00A8
:105590005B084FEA3202B6EB020E75EB030E22BF38
:1055A000B61A754640EA9C005B084FEA3202B6EB39
:1055B000020E75EB030E22BFB61A754640EADC00F8
:1055C00055EA060E18D04FEA051545EA16754FEA5A
:1055D00006164FEAC30343EA52734FEAC2025FEA78
:1055E0001C1CC0D111F4801F0BD141EA00014FF007
:1055F00000004FF0004CB6E711F4801F04BF0143D8
:105600000020B4F1FD0C88BFBCF5E06F3FF6AFAEF3
:10561000B5EB030C04BFB6EB020C5FEA500C50F183
:10562000000041EB045170BD0EF0004E4EEA113106
:1056300014EB5C04C2BFD4EB0C0541EA045170BD0D
:1056400041F480114FF0000E013C90E645EA060E51
:105650008DE60CEA135594EA0C0F08BF95EA0C0F7F
:105660003FF43BAF94EA0C0F0AD150EA01347FF4C7
:1056700034AF95EA0C0F7FF425AF104619462CE79E
:1056800095EA0C0F06D152EA03353FF4FDAE104601
:10569000194622E750EA410618BF52EA43067FF452
:1056A000C5AE50EA41047FF40DAF52EA43057FF4E2
:1056B000EBAE12E74FEA4102B2F1E04324BFB3F58B
:1056C000001CDCF1FE5C0DD901F0004C4FEAC00279
:1056D0004CEA5070B2F1004F40EB830008BF20F05D
:1056E0000100704711F0804F21D113F13872BCBF17
:1056F00001F00040704741F480114FEA5252C2F16C
:105700001802C2F1200C10FA0CF320FA02F018BFB4
:1057100040F001004FEAC1234FEAD32303FA0CFC07
:1057200040EA0C0023FA02F34FEA4303CCE77FEA96
:10573000625307D150EA01331EBF4FF0FE4040F4E0
:105740004000704701F0004040F0FE4040F400008F
:10575000704700BF014B1868704700BF7000002001
:1057600030B5141E05469BB0184604DA8B232B6017
:105770004FF0FF301DE04FF40273ADF80C3014BF52
:1057800004F1FF332346029305934FF6FF73009114
:105790000491ADF80E3002461E9B6946284600F083
:1057A00073F8431CBCBF8B232B6014B1009B0022F9
:1057B0001A701BB030BD000007B5009313460A46AF
:1057C000014603480068FFF7CBFF03B05DF804FB18
:1057D000700000202DE9F0478E689E4282460C46FC
:1057E000914698463ED88A8912F4906F3AD025683F
:1057F00009696F1A6569022305EB450595FBF3F509
:105800007B1C43449D4238BF1D4653050FD5294696
:1058100000F092FB064698B13A46216900F018FB69
:10582000A38923F4906343F08003A38113E02A4605
:1058300000F0E0FB064670B92169504600F02EFBEF
:105840000C23CAF80030A38943F04003A3814FF032
:10585000FF30BDE8F087266165613E44ED1B2660A0
:10586000A5604646464528BF46463246494620681A
:1058700000F0F9FAA3689B1BA36023681E4426600E
:105880000020BDE8F08700002DE9F04F9DB0804674
:1058900003938B891C060D4616460DD50B695BB923
:1058A000402100F049FB2860286118B90C23C8F892
:1058B0000030CDE040236B610023099320238DF855
:1058C0002930DFF89CB130238DF82A3037463C462A
:1058D00014F8013B1BB9B7EB060910D003E0252BE8
:1058E000F9D02746F3E74B46324629464046FFF7B4
:1058F00071FF013000F0A780099B4B4409933B786E
:10590000002B00F0A08000234FF0FF320493079398
:10591000059206938DF853301A93012605222178BB
:105920004E4800F045FA671C049B38B14B4A801A78
:1059300006FA00F0184304903C46EFE7D90644BF4E
:1059400020228DF853201A0744BF2B228DF85320B4
:1059500022782A2A03D0079A00210A200BE0039A12
:10596000111D12680391002A10DA524243F002001E
:10597000079204900BE0274601343B78303B092B1B
:1059800003D800FB02320121F5E701B107923B7811
:105990002E2B1ED17B782A2B0AD1039B1A1D1B6844
:1059A0000392002BB8BF4FF0FF330237059310E08E
:1059B00000230593781C19460A24074601303A78DB
:1059C000303A092A03D804FB01210123F5E703B18A
:1059D000059103223978224800F0EAF940B14023CA
:1059E000CBEB000003FA00F0049B1843049001374E
:1059F00039781C488DF8281006227E1C00F0D8F952
:105A000088B1194B33B9039B073323F007030833DD
:105A1000039314E003AB00932A46144B04A94046B9
:105A2000AFF3008007E003AB00932A460F4B04A9B5
:105A3000404600F093F8B0F1FF3F824603D0099B47
:105A40005344099342E7AB895B0601D4099801E00E
:105A50004FF0FF301DB0BDE8F08F00BF7267000847
:105A6000786700087C67000800000000D557000830
:105A70002DE9F04791461F460A698B68DDF82080C2
:105A80009342B8BF1346C9F8003091F84320064648
:105A90000C4612B10133C9F800302368990642BFA1
:105AA000D9F800300233C9F80030256815F0060532
:105AB00010D104F1190A07E0012352463946304655
:105AC000C04701301AD00135E368D9F800209B1A8D
:105AD0009D42F1DB94F843302268003318BF012364
